{
  "contractName": "Owned",
  "abi": [
    {
      "constant": true,
      "inputs": [],
      "name": "owner",
      "outputs": [
        {
          "name": "",
          "type": "address"
        }
      ],
      "payable": false,
      "stateMutability": "view",
      "type": "function"
    },
    {
      "constant": true,
      "inputs": [],
      "name": "newOwner",
      "outputs": [
        {
          "name": "",
          "type": "address"
        }
      ],
      "payable": false,
      "stateMutability": "view",
      "type": "function"
    },
    {
      "inputs": [],
      "payable": false,
      "stateMutability": "nonpayable",
      "type": "constructor"
    },
    {
      "anonymous": false,
      "inputs": [
        {
          "indexed": true,
          "name": "_from",
          "type": "address"
        },
        {
          "indexed": true,
          "name": "_to",
          "type": "address"
        }
      ],
      "name": "OwnershipTransferred",
      "type": "event"
    },
    {
      "constant": false,
      "inputs": [
        {
          "name": "_newOwner",
          "type": "address"
        }
      ],
      "name": "transferOwnership",
      "outputs": [],
      "payable": false,
      "stateMutability": "nonpayable",
      "type": "function"
    },
    {
      "constant": false,
      "inputs": [],
      "name": "acceptOwnership",
      "outputs": [],
      "payable": false,
      "stateMutability": "nonpayable",
      "type": "function"
    }
  ],
  "bytecode": "0x608060405234801561001057600080fd5b50336000806101000a81548173ffffffffffffffffffffffffffffffffffffffff021916908373ffffffffffffffffffffffffffffffffffffffff160217905550610432806100606000396000f3fe608060405260043610610062576000357c0100000000000000000000000000000000000000000000000000000000900463ffffffff16806379ba5097146100675780638da5cb5b1461007e578063d4ee1d90146100d5578063f2fde38b1461012c575b600080fd5b34801561007357600080fd5b5061007c61017d565b005b34801561008a57600080fd5b5061009361031c565b604051808273ffffffffffffffffffffffffffffffffffffffff1673ffffffffffffffffffffffffffffffffffffffff16815260200191505060405180910390f35b3480156100e157600080fd5b506100ea610341565b604051808273ffffffffffffffffffffffffffffffffffffffff1673ffffffffffffffffffffffffffffffffffffffff16815260200191505060405180910390f35b34801561013857600080fd5b5061017b6004803603602081101561014f57600080fd5b81019080803573ffffffffffffffffffffffffffffffffffffffff169060200190929190505050610367565b005b600160009054906101000a900473ffffffffffffffffffffffffffffffffffffffff1673ffffffffffffffffffffffffffffffffffffffff163373ffffffffffffffffffffffffffffffffffffffff161415156101d957600080fd5b600160009054906101000a900473ffffffffffffffffffffffffffffffffffffffff1673ffffffffffffffffffffffffffffffffffffffff166000809054906101000a900473ffffffffffffffffffffffffffffffffffffffff1673ffffffffffffffffffffffffffffffffffffffff167f8be0079c531659141344cd1fd0a4f28419497f9722a3daafe3b4186f6b6457e060405160405180910390a3600160009054906101000a900473ffffffffffffffffffffffffffffffffffffffff166000806101000a81548173ffffffffffffffffffffffffffffffffffffffff021916908373ffffffffffffffffffffffffffffffffffffffff1602179055506000600160006101000a81548173ffffffffffffffffffffffffffffffffffffffff021916908373ffffffffffffffffffffffffffffffffffffffff160217905550565b6000809054906101000a900473ffffffffffffffffffffffffffffffffffffffff1681565b600160009054906101000a900473ffffffffffffffffffffffffffffffffffffffff1681565b6000809054906101000a900473ffffffffffffffffffffffffffffffffffffffff1673ffffffffffffffffffffffffffffffffffffffff163373ffffffffffffffffffffffffffffffffffffffff161415156103c257600080fd5b80600160006101000a81548173ffffffffffffffffffffffffffffffffffffffff021916908373ffffffffffffffffffffffffffffffffffffffff1602179055505056fea165627a7a72305820f00ab63edc1730384d46e5caad6383f3cffafb1a1f7ee0ffd2068cf425b36cb60029",
  "source": "pragma solidity >=0.5.0;\r\n\r\n\r\n// ----------------------------------------------------------------------------\r\n// Safe maths\r\n// ----------------------------------------------------------------------------\r\ncontract SafeMath {\r\n    function safeAdd(uint a, uint b) public pure returns (uint c) {\r\n        c = a + b;\r\n        require(c >= a);\r\n    }\r\n    function safeSub(uint a, uint b) public pure returns (uint c) {\r\n        require(b <= a);\r\n        c = a - b;\r\n    }\r\n    function safeMul(uint a, uint b) public pure returns (uint c) {\r\n        c = a * b;\r\n        require(a == 0 || c / a == b);\r\n    }\r\n    function safeDiv(uint a, uint b) public pure returns (uint c) {\r\n        require(b > 0);\r\n        c = a / b;\r\n    }\r\n}\r\n\r\n// ----------------------------------------------------------------------------\r\n// Owned contract\r\n// ----------------------------------------------------------------------------\r\ncontract Owned {\r\n    address public owner;\r\n    address public newOwner;\r\n\r\n    event OwnershipTransferred(address indexed _from, address indexed _to);\r\n\r\n    constructor() public {\r\n        owner = msg.sender;\r\n    }\r\n\r\n    modifier onlyOwner {\r\n        require(msg.sender == owner);\r\n        _;\r\n    }\r\n\r\n    function transferOwnership(address _newOwner) public onlyOwner {\r\n        newOwner = _newOwner;\r\n    }\r\n    function acceptOwnership() public {\r\n        require(msg.sender == newOwner);\r\n        emit OwnershipTransferred(owner, newOwner);\r\n        owner = newOwner;\r\n        newOwner = address(0);\r\n    }\r\n}\r\n\r\n// ----------------------------------------------------------------------------\r\n// EtherTrust contract\r\n// ----------------------------------------------------------------------------\r\ncontract EtherTrust is SafeMath, Owned{\r\n\r\n    uint participants;\r\n\r\n    uint totalCredits;\r\n\r\n    mapping(address => uint) credits;\r\n\r\n    mapping(address => uint) wTime;\r\n\r\n    event logCredits(uint credits);\r\n\r\n    uint devFee;\r\n\r\n    constructor() payable public{\r\n        participants = 0;\r\n        totalCredits = 0;\r\n        devFee = 0;\r\n    }\r\n\r\n    // Participant functions\r\n    function deposit() public payable{\r\n        require(msg.value >= 1000000000000000, \"Not enough ether for any credits.\");\r\n\r\n        if(credits[msg.sender] < 1){\r\n            participants++;\r\n        }\r\n        uint roll = 0;\r\n        if(block.number - wTime[msg.sender] != 0){\r\n            roll = (1800000000 * credits[msg.sender] * (block.number - wTime[msg.sender]) / 1000000000000000);\r\n        }\r\n        wTime[msg.sender] = block.number;\r\n        devFee += (msg.value * 2) / 100;\r\n        totalCredits += (msg.value / 1000000000000000) + roll;\r\n        credits[msg.sender] += msg.value / 1000000000000000 + roll;\r\n\r\n        //emit logCredits(devFee);\r\n    }\r\n\r\n    function getCredits(address sender) public view returns(uint){\r\n        return credits[sender];\r\n    }\r\n\r\n    function viewWithdraw(address sender) public view returns(uint){\r\n        uint eth = 1800000000 * credits[sender] * (block.number - wTime[sender]);\r\n        uint claim;\r\n        if(((2 * (address(this).balance / participants)) / 1000000000000000) < credits[sender]){\r\n            claim = (block.number - wTime[sender]) * (((address(this).balance * 5) / 10000) / 6200);\r\n        }\r\n        else{\r\n            claim = eth;\r\n        }\r\n        return claim;\r\n    }\r\n\r\n    function withdraw() public {\r\n        uint eth = 1800000000 * credits[msg.sender] * (block.number - wTime[msg.sender]);\r\n        uint claim;\r\n        if(((2 * (address(this).balance / participants)) / 1000000000000000) < credits[msg.sender]){\r\n            claim = (block.number - wTime[msg.sender]) * (((address(this).balance * 5) / 10000) / 6200);\r\n        }\r\n        else{\r\n            claim = eth;\r\n        }\r\n        emit logCredits(claim);\r\n        wTime[msg.sender] = block.number;\r\n        msg.sender.transfer(claim);\r\n    }\r\n\r\n    // General contract functions\r\n    function viewContractBalance() public view returns(uint){\r\n        return address(this).balance;\r\n    }\r\n\r\n    function viewParticipants() public view returns(uint){\r\n        return participants;\r\n    }\r\n\r\n    function viewWhaleStatus() public view returns(uint){\r\n        if(participants == 0){return 0;}\r\n        return (2 * (address(this).balance / participants)) / 1000000000000000;\r\n    }\r\n\r\n    function viewWhalePull() public view returns(uint){\r\n        return (address(this).balance * 5) / 10000;\r\n    }\r\n\r\n    function viewTotalCredits() public view returns(uint){\r\n        return totalCredits;\r\n    }\r\n\r\n    // Dev functions\r\n    function devFeeBalance() public onlyOwner view returns(uint){\r\n        return devFee;\r\n    }\r\n\r\n    function withdrawDevFee() public onlyOwner{\r\n        uint a = devFee;\r\n        devFee = 0;\r\n        msg.sender.transfer(a);\r\n    }\r\n}\r\n",
  "sourcePath": "C:/Users/PC/Documents/EtherTrust/contracts/EtherTrust.sol",
  "compiler": {
    "name": "solc",
    "version": "0.5.0+commit.1d4f565a.Emscripten.clang"
  },
  "schemaVersion": "3.0.0",
  "updatedAt": "2019-06-19T02:33:28.057Z",
  "devdoc": {
    "methods": {}
  },
  "userdoc": {
    "methods": {}
  }
}